:020000040800F2
:10000000081B0020AD010008871A0008291A000803
:10001000851A0008EB020008FD340008000000000B
:10002000000000000000000000000000971A000817
:100030006903000800000000951A0008991A0008DA
:10004000C7010008C7010008C7010008C701000870
:10005000C7010008C7010008C7010008C701000860
:10006000C7010008C7010008C7010008C701000850
:10007000C7010008C7010008C7010008C701000840
:10008000C7010008C7010008C70100080000000000
:10009000000000000000000000000000C701000890
:1000A000C7010008C7010008C7010008C701000810
:1000B000C7010008C7010008C7010008C701000800
:1000C000C7010008C7010008C7010008C7010008F0
:1000D000C7010008C7010008C701000800000000B0
:1000E000C7010008C7010008C701000800000000A0
:1000F000000000000000000000000000C701000830
:1001000000000000C7010008C7010008C70100087F
:1001100000000000000000000000000000000000DF
:10012000C7010008C7010008C7010008C70100088F
:10013000C7010008000000000000000000000000EF
:10014000000000000000000000000000891A000804
:10015000C7010008C7010008C7010008C70100085F
:10016000C7010008C70100080000000000000000EF
:10017000000000000000000000000000000000007F
:1001800000000000C701000800000000000000009F
:10019000C7010008DFF810D000F06AF800480047F7
:1001A0001D350008AFF30080081B0020064880477B
:1001B00006480047FEE7FEE7FEE7FEE7FEE7FEE74C
:1001C000FEE7FEE7FEE7FEE7611B00089501000879
:1001D0002DE9F05F0546002092469B46884606467C
:1001E000814640241BE0284641464746224600F00F
:1001F0002FF853465A46C01A914110D3114618465B
:10020000224600F016F82D1A67EB01084F462246E9
:100210000120002100F00DF817EB00094E41201ECF
:10022000A4F10104DFDC484631462A464346BDE8D6
:10023000F09F202A04DB203A00FA02F100207047E8
:100240009140C2F1200320FA03F319439040704714
:10025000202A04DB203A21FA02F00021704721FA1B
:1002600002F3D040C2F12002914008431946704782
:10027000064C074D06E0E06840F0010394E80700F3
:1002800098471034AC42F6D3FFF788FF4C3600088D
:100290006C36000870B58C1810F8015B15F0070378
:1002A00001D110F8013B2A1106D110F8012B03E00F
:1002B00010F8016B01F8016B5B1EF9D12B0705D417
:1002C0000023521E0DD401F8013BFAE710F8013B60
:1002D000CB1A921C03E013F8015B01F8015B521E7C
:1002E000F9D5A142D8D3002070BDFEE700207047A9
:1002F0000020704770B51848184CD0F8BC12002088
:100300000A5C2254401CC0B20428F9D32078144D52
:1003100052280CD16078632804BFA178762915D1C2
:100320004FF001024FF04001284600F03BF92078E1
:10033000532801BF60786E28A078642806D14FF05A
:1003400000024FF04001284600F02CF90549012039
:100350000870002070BD000014020020630000201F
:100360000008024062000020704772B6FEE70000FD
:1003700070B5044600F01CF906462546681C10B10D
:1003800004480078054400BF00F012F9801BA84221
:10039000FAD370BDEC0000202DE9F84FDFF8E8A19A
:1003A0000022DFF8E0914FF0010E03274FF00F0815
:1003B0000AF1040B0B680EFA02FC03EA0C03634516
:1003C0007ED10C7904F00304012C18BF022C18D143
:1003D00085684FEA420407FA04F625EA0605CE6866
:1003E00006FA04F444EA05048460446824EA0C0C28
:1003F0000C79C4F3001404FA02F444EA0C0CC0F8BB
:1004000004C0D1F804C037EA0C0C0CD0C4684FEA21
:10041000420C07FA0CF5AC438D6805FA0CFC4CEA6B
:10042000040CC0F80CC091F804C00CF0030CBCF133
:10043000020F12D14FEAD20C00EB8C04256A4FEA6E
:10044000427C4FEADC6C08FA0CF6B5430E6906FAFA
:100450000CFC4CEA050CC4F820C004684FEA420CBE
:1004600007FA0CF5AC430D7905F0030505FA0CFC11
:100470004CEA040CC0F800C0D1F804C01CF0805F46
:1004800079D0D9F800C04CF4804CC9F800C0D9F834
:1004900000C00CF4804CCDF800C022F0030C0CF12D
:1004A000804505F59835D5F808C89407240F08FA53
:1004B00004F62CEA0606A0F1804CBCF5003C00E0F6
:1004C00059E020D0A0F1804CBCF5013C08BF4FF0B2
:1004D000010C18D0A0F1804CBCF5023C08BF4FF0D5
:1004E000020C10D0A0F1804CBCF5033C08BF4FF0CB
:1004F000030C08D0A0F1804CBCF5043C0CBF4FF0BD
:10050000040C4FF0070C0CFA04FC4CEA060CC5F87E
:1005100008C8DAF800C04C682CEA030C14F4803FD9
:1005200018BF4CEA030CCAF800C0DBF800C04C68E6
:100530002CEA030C14F4003F18BF4CEA030CCBF870
:1005400000C0124CD4F800C04D682CEA030C15F41E
:10055000801F18BF4CEA030CC4F800C00C4CD4F840
:1005600000C04D682CEA030C15F4001F18BF4CEABC
:10057000030CC4F800C0521C102AFFF41BAFBDE8E6
:10058000F88F000044380240003C0140083C014024
:100590000C3C0140426921EA0203114043EA014157
:1005A00081617047002A08BF09048161704700001B
:1005B0000148006870470000E4000020034800681C
:1005C000034909780844014908607047E4000020A5
:1005D000EC00002010B50D48006840F400700B4995
:1005E00008600846006840F48060086008460068BB
:1005F00040F480700860032000F08CF8002000F0C8
:1006000007F800F02BF8002010BD0000003C02406D
:1006100070B504460E4800784FF47A71B1FBF0F0E3
:100620000C490968B1FBF0F5284601F00DF908B155
:10063000012070BD102C07D200222146501E00F070
:1006400037F80548046001E00120F2E70020F0E7F8
:10065000EC000020F0000020E80000200A4881B0F3
:10066000016841F480410160006800F4804000901E
:100670000648016841F080510160006800F0805038
:10068000009001B0704700004438024040380240FA
:100690000028B8BF704700F01F01012202FA01F1E3
:1006A0004009800000F1E020C0F800117047000010
:1006B000174B10B41B68C3F30223C3F1070CBCF142
:1006C000040F88BF4FF0040C1C1D072C34BF0023FF
:1006D000DB1E012404FA0CFCACF1010C0CEA010154
:1006E000994004FA03F35B1E1A40114300284FEAB5
:1006F0000111A1BF00F1E02080F8001410BC704788
:1007000000F00F0000F1E02080F8141D10BC7047CD
:100710000CED00E0074A00F0070011684FF6FF03F8
:10072000194041EA002040F0FD7040F08060106008
:10073000704700000CED00E0704700684162002047
:10074000704770B40368586A002904BF40EA024049
:10075000986219D0D3F828C000EB1C4C00204C1E26
:1007600018BF4FF4827508D005EB80069E59401CD7
:10077000C0B20CEB164C8442F6D84CEA02404FF45F
:10078000807202EB8101585070BC00207047D0F895
:10079000040401F0FDBDC1EBC10200EB8202D0F800
:1007A0000404926C01F060BDC1EBC10200EB820257
:1007B000D0F80404D2F8082201F0B2BDD0F8040445
:1007C00001F0E8BD70B5044611F0800F01F00F0094
:1007D000C0EBC00104EB81014FF001024FF00005B6
:1007E00019BF81F83D203C3181F8FD5101F5FE71C2
:1007F000087094F8BC03012804BF022070BD84F87F
:10080000BC23206802F0C8F984F8BC53002070BDF6
:1008100070B50446406801F00F02824284BF012097
:1008200070BD11F0800F01F00F00C0EBC00004EBB1
:1008300080004FF001034FF0000519BF00F13C01AB
:1008400080F83D3000F5FE7180F8FD518D700A7022
:1008500094F8BC03012804BF022070BD84F8BC33A7
:10086000206802F0C1FB84F8BC53002070BD70B555
:10087000044611F0800F01F00F00C0EBC00104EB43
:1008800081014FF0010C4FF0000519BF81F83DC008
:100890003C3181F8FD5101F5FE7108708A60CB7022
:1008A0004A78002A18BFC880022B08BF0D7194F83F
:1008B000BC03012804BF022070BD84F8BCC32068BB
:1008C00002F0A8F8284684F8BC5370BD10B50C4659
:1008D00001F00F0CCCEBCC0100EB8101C1F8103220
:1008E000C1F808220023C1F8143281F8FD3181F8E3
:1008F000FCC1036901F5FE71012B08BF0A6114F008
:100900000F0F027C006803D002F0CAFB002010BD6C
:1009100002F0A6FAFAE770B504460D4601F00F00A2
:100920006168884284BF012070BD15F0800F4FF0D0
:1009300000064FF0010214BFC0EBC001C5EBC501BA
:1009400004EB810119BF81F83D203C3181F8FD6144
:1009500001F5FE718A70087094F8BC03012804BF89
:10096000022070BD84F8BC23206802F06AFB15F0F9
:100970000F0F05D1217C04F57172206802F006FB8F
:1009800084F8BC63002070BD10B50C4601F00F0C5C
:10099000CCEBCC0100EB81010B658A6400234B6535
:1009A000012381F83D3001F83CCF0369012B08BFDA
:1009B0000A6114F00F0F027C006803D002F070FB94
:1009C000002010BD02F04CFAFAE700002DE9F04FCC
:1009D0000568044683B0284602F09AFC00281CBF34
:1009E00003B0BDE8F08F206802F0BEFC002804BF11
:1009F00003B0BDE8F08F206802F0B6FC10F0020FE3
:100A000004D02068416901F002014161206802F0D0
:100A1000ABFC10F0100F35D02068816921F0100177
:100A200081612F6A07F00F00C0EBC00004EB80006B
:100A300000F5FE76C7F34340022802D0062811D005
:100A40001BE047F6F070074217D0C7F30A121746AB
:100A50002846F16802F08CFCF0683844F060B06918
:100A6000384409E0082204F57171284602F080FC40
:100A7000B069C7F30A110844B0612068816941F088
:100A800010018161206802F06FFC10F4002F7CD00F
:100A90000026206802F047FC5FEA00081CBF4FF404
:100AA000004ADFF818B570D018F0010F6ED0F1B21F
:100AB000206802F051FC074610F0010F52D005EB00
:100AC00046110120C1F8080B23681A6C03EB46118C
:100AD000D1F8080BD4F810C0BCF1010F07D0DFF833
:100AE000E0C4624568D110F4004F08D15DE010F019
:100AF000080F07D05A4535D910F4004F32D0C1F84D
:100B000008AB2FE010F0200F1ABF2020C1F8080B0F
:100B100010F0280F26D15A4502D910F4004FEED11B
:100B2000C6EBC60204EB8200D1F8101BD0F80422F9
:100B3000C1F31201511AC0F81412D0F80812002E95
:100B40001144C0F8081204BFD4F81002002805D1DF
:100B500004F571724FF00101206838E0F1B22046CF
:100B6000FFF722FE17F0080F3AD005EB46114FF0C1
:100B70000800C1F8080B2068D0F8409000EB461040
:100B8000D0F8081BD94507D901E04AE043E011F449
:100B9000004F18BFC0F808AB204600F014FBD94541
:100BA0001ED9206901281BD114E010F0200F1CBFB2
:100BB0002020C1F8080BD1E7002E04BFD4F81002A2
:100BC0000028CBD104F571724FF00001184602F0F5
:100BD000DDF9C3E704F571720121206802F0D6F94E
:100BE00017F0100F05D005EB46114FF01000C1F8BB
:100BF000080B17F0200F05D005EB46114FF0200031
:100C0000C1F8080B17F4005F05D005EB46114FF44F
:100C10000050C1F8080B06F101065FEA58087FF49E
:100C200043AF206802F0A0FB10F4802F7ED0206834
:100C300002F072FB5FEA000A4FF0000876D01AF06B
:100C4000010F74D008F0FF01206802F073FB064624
:100C500010F0010F2BD008F00F000121D5F8342837
:100C600001FA00F022EA0000C5F8340805EB48104C
:100C7000C0F808192069012814D1C8EBC80004EB9A
:100C80008000B8F1000FD0E911211144816404BF44
:100C9000206D002806D104F571724FF00101206823
:100CA00002F074F908F0FF012046FFF774FD16F01A
:100CB000080F05D005EB48114FF00800C1F80809EE
:100CC00016F0100F05D005EB48114FF01000C1F8D9
:100CD000080916F0400F05D005EB48114FF0400011
:100CE000C1F8080916F0020F05D005EB48114FF0C6
:100CF0000200C1F8080916F0800F4AD0C8EBC800FE
:100D000004EB800000F13C06D4F800B0D6E90510F1
:100D100088423ED8081AB168814238BF0846C01CD4
:100D20004FEA90090BEB4810019019E037E030E0F2
:100D3000471AB068B84238BF0746F81C4FEA900916
:100D4000207C0090BBB208F0FF025846F16802F028
:100D5000BDFBF0683844F060B0693844B061019878
:100D6000D0F8180980B2484524BFD6E90501884269
:100D700001D90028DCD1D6E90501884209D808F05C
:100D80000F0101208840DBF8341821EA0000CBF87D
:100D9000340808F101085FEA5A0A7FF450AF20686E
:100DA00002F0E2FA10F0004F11D0D5F8040820F05C
:100DB0000100C5F8040894F8F403012868D020461F
:100DC00000F0E5F92068416901F0004141612068C7
:100DD00002F0CAFA10F4006F0CD0D5F8080810F031
:100DE000010F1CBF204600F015FA2068416901F48C
:100DF00000614161206802F0B7FA10F4805F6DD0A5
:100E0000D5F8040820F00100C5F804081021206876
:100E100002F05EFA60680021002888BF4FF67F323A
:100E200021D905EB4110C0F80829D0F8003923F486
:100E30000013C0F80039D0F8003943F00063C0F85F
:100E40000039C0F8082BD0F8003B23F40013C0F899
:100E5000003BD0F8003B43F00063C0F8003B606803
:100E6000491C8842DDD8D5F81C0840F00110C5F8AF
:100E70001C08206BA0B1D5F8840840F00B00C5F821
:100E80008408D5F8440840F00B00C5F8440814E085
:100E9000002084F8F40301462046FFF74DFC91E75B
:100EA000D5F8140842F22B010843C5F81408D5F808
:100EB000100840F00B00C5F81008D5F8000820F421
:100EC000FE60C5F80008217C04F57172206802F00C
:100ED0005DF82068416901F480514161206802F0A9
:100EE00043FA10F4005F16D0206801F0DFFD20689F
:100EF00002F002FAE06000F059FA23680146227B12
:100F0000184602F071FA204600F02AF9206841697B
:100F100001F400514161206802F026FA10F0080F38
:100F200007D0204600F037F92068416901F0080138
:100F30004161206802F018FA10F4801F08D00021E7
:100F4000204600F03FF82068416901F480114161BA
:100F5000206802F009FA10F4001F08D00021204692
:100F600000F034F82068416901F400114161206803
:100F700002F0FAF910F0804F07D02046FFF707FC87
:100F80002068416901F080414161206802F0ECF97C
:100F900010F0040F04BF03B0BDE8F08F206845686F
:100FA00015F0040F1CBF2046FFF708FC20684168BD
:100FB0002943416003B0BDE8F08F00000A30544F70
:100FC0000A31544FD0F8040401F030BAD0F80404C8
:100FD00001F03DBA002804BF012070472DE9F04719
:100FE0000446066890F8BD038AB0002520B984F84D
:100FF000BC53204600F070F8032084F8BD03F06B6A
:1010000010F4807F08BF2561206801F023FF1034B1
:10101000B4E8CF118DE8CF1174E80C01CDE90801D7
:1010200094E80F0001F050FD0227002843D1002171
:10103000206802F0AFF9606800210126002813D96A
:10104000C1EBC10004EB800080F83D6080F83C10EB
:10105000A0F8421080F83F50456485640565481C3F
:10106000C1B260688842EBD80021002814D9C1EBD6
:10107000C10004EB800080F8FD5180F8FC1180F87D
:10108000FF51C0F80452C0F80852C0F81052481C72
:10109000C1B260688842EAD804F1100090E80F17E6
:1010A0008DE80F17D4E90C01CDE9080194E80F0091
:1010B00001F0FCFD28B184F8BD730AB00120BDE841
:1010C000F08784F8385084F8BD63206801F0E0FDB3
:1010D0000AB00020BDE8F08700B587B0002100917C
:1010E00001910291039104910068B0F1A04F1CBFDF
:1010F00007B000BD1648016841F0010101600068B9
:10110000694600F0010005904FF4C05000900220A5
:101110000190032003900A2004900E48FFF73CF949
:101120000D48016841F0800101600C48016841F4FC
:10113000804101600068002200F480400590114663
:101140004320FFF7B5FA4320FFF7A2FA07B000BD2E
:101150003038024000000240343802404438024037
:1011600070B50446C0680125002808BF002503D0DB
:10117000022818BFFFF7F9F82946D4F8040401F053
:10118000D8F9D4F80404BDE8704001F086B9D0F86D
:10119000040401F0B3B9D0F8040401F0B9B910B5F2
:1011A000044690F8BC03012804BF022010BD0120B2
:1011B00084F8BC0384F83810206802F003F900209A
:1011C00084F8BC0310BDD0F8042400F571711046FA
:1011D00001F0BBB910B50446006894F8BC130129AE
:1011E00004BF022010BD012184F8BC13A16A0129AB
:1011F00006D1A169012903D0816B41F4803181635B
:10120000206802F05EF8206801F034FD002084F8C8
:10121000BC0310BD10B50446D0F8040401F0D9F9A0
:101220002068D0F8001E41F00101C0F8001E206ABD
:10123000002808BF10BD0348016841F006010160A5
:1012400010BD000010ED00E0002804BF0120704731
:101250002DE9F047DFF83C9104460D46D9F800002F
:10126000CFB200F00700A84207D289F80070D9F881
:10127000000000F00700A84263D12068464E10F03D
:10128000020F14D010F0040F03D0306840F4E05087
:101290003060207810F0080F03D0306840F46040D0
:1012A00030603068A16820F0F0000843306020789A
:1012B00010F0010F37D060683849012823D0022888
:1012C00018BF0328096823D011F0020F39D0316804
:1012D00021F0030141EA00003060FFF769F9804620
:1012E0003068616800F00C00B0EB810F18BF41F26C
:1012F000883A18D0FFF75CF9A0EB080050450BD9ED
:101300000320BDE8F087096811F4003FDFD118E041
:1013100011F0007FDBD114E03068616800F00C0050
:10132000B0EB810FE6D1D9F8000000F00700A84229
:101330000AD989F80070D9F8000000F00700A84227
:1013400002D00120BDE8F087207810F0040F05D00E
:101350003068E16820F4E05008433060207810F0F5
:10136000080F06D03068216920F4604040EAC100CF
:10137000306000F021F83168094AC1F30311515C73
:10138000C8400849086008480068FFF741F9002094
:10139000BDE8F087003C02400838024000380240B7
:1013A0003C360008F0000020E800002001480068FA
:1013B00070470000F00000201848006810F00C0191
:1013C000174808BF7047174B042904BF18467047D9
:1013D000082918BF704710B5134C216801F03F026F
:1013E000216811F4800F08D02068C0F38810A0FB9A
:1013F00003010023FEF7ECFE07E021680023C1F3A0
:101400008811A1FB0001FEF7E3FE2168C1F3014151
:10141000491C4900B0FBF1F010BD00000838024043
:101420000024F40040787D0104380240002804BF05
:10143000012070472DE9F84F04460078F84E10F06F
:10144000010FA6F1040556D0301D016801F00C0112
:10145000042908D0006800F00C0008280CD130687E
:1014600010F4800F08D0286810F4003F43D0606863
:10147000002800F0D1813EE06068B0F5803F19D0CF
:10148000B0F5A02F28680CBF40F4802020F48030F5
:10149000286028680CBF40F4803020F48020286049
:1014A0006068B8B1FFF784F80746286810F4003F79
:1014B00005D020E0286840F480302860F0E7FFF78E
:1014C00077F8C01B642800F24181286810F4003FBF
:1014D000F5D010E0FFF76CF80746286810F4003FDD
:1014E00009D0FFF765F8C01B642800F22F81286837
:1014F00010F4003FF5D12078CA4F10F0020F4FF0E2
:10150000000948D0C848016811F00C0F15D00068D8
:1015100000F00C00082804BF306810F4800F0CD0D5
:10152000E06828B34FF001003860FFF741F88046CB
:10153000286810F0020F09D012E0286810F0020F9E
:101540001CBFE06801280BD000F066B9FFF730F847
:10155000A0EB080002287DD8286810F0020FF5D013
:101560002868216920F0F80040EAC100286012E0F4
:10157000C7F80090FFF71CF88046286810F0020FAB
:1015800009D0FFF715F8A0EB0800022862D82868F8
:1015900010F0020FF5D1207810F0080F2FD0A348DB
:1015A000DFF88CA26169A9B101210160FFF700F8A1
:1015B0008046DAF8000010F0020F20D1FEF7F8FFA5
:1015C000A0EB0800022845D8DAF8000010F0020F5E
:1015D000F4D014E0C0F80090FEF7EAFF8046DAF895
:1015E000000010F0020F0AD0FEF7E2FFA0EB0800A7
:1015F00002282FD8DAF8000010F0020FF4D120787A
:1016000010F0040F7ED08B484FF00008006810F0F7
:10161000805F0AD18748016841F08051016000680D
:101620004FF0010800F080500090DFF80CB2DBF8BA
:10163000000010F4807F1AD1DBF8000040F48070C5
:10164000CBF80000FEF7B4FF8246DBF8000010F490
:10165000807F00E07AE00AD1FEF7AAFFA0EB0A0043
:10166000022873D8DBF8000010F4807FF4D0A06863
:10167000DFF8C8B101281DD00528DBF800000CBF39
:1016800040F0040020F00100CBF80000DBF800007F
:101690000CBF40F0010020F00400CBF80000A0686F
:1016A000E8B1FEF785FF8246DBF8000010F0020F7C
:1016B00007D02BE0DBF8000040F00100CBF8000081
:1016C000EDE7FEF775FFA0EB0A0141F28830814299
:1016D0003CD8DBF8000010F0020FF2D016E0FEF765
:1016E00067FF8246DBF8000010F0020F0ED0FEF715
:1016F0005FFFA0EB0A0141F28830814226D8DBF877
:10170000000000E00AE010F0020FF0D1B8F1000F85
:1017100004D04848016821F080510160A069E8B315
:101720004149096801F00C0108294ED00228C7F888
:1017300060900ED0FEF73CFF0446286810F0007F52
:101740002CD0FEF735FF001B022839D90320BDE855
:10175000F88FFEF72DFF8046286810F0007F09D033
:10176000FEF726FFA0EB08000228EFD8286810F04B
:10177000007FF5D1D4E907010843A16A304A49083E
:1017800002EB0141626A41EA8211084394F82C108D
:1017900040EA016030600120386600E052E0FEF768
:1017A00007FF0446286810F0007F4BD1FEF700FFCA
:1017B000001B0228CAD8286810F0007FF6D041E04C
:1017C000286810F0007FBCD13CE0012808BFBDE8CC
:1017D000F88F3068E26900F4800191421CD1226ADE
:1017E00000F03F01914217D147F6C071626A014093
:1017F000B1EB821F10D1A26A4FF0FF3300F44031E9
:1018000003EB5202B1EB024F06D194F82C1000F01A
:101810007060B0EB016F15D00120BDE8F88F0000BB
:10182000043802400000474208380240800E474218
:101830007438024040380240007000407038024066
:101840000000FFFF0020E8E7401EB0F1807F24BFCA
:10185000012070474FF0E0214861054AF02082F8EE
:10186000140D0020886107200861002070470000E7
:101870000FE000E090F83C20012A04BF02207047EE
:1018800030B4012480F83C40022280F83D200268F8
:10189000D2F804C093680D682CF0700C45EA0C0C6B
:1018A000C2F804C00268A2F1804CBCF5803C18BFAD
:1018B000B2F1804F13D0A2F1804CBCF5806C1CBFFC
:1018C000A2F1804CBCF5006C09D0A2F1804CBCF5B3
:1018D000406C1CBFA2F1804CBCF5A03C04D149680F
:1018E00023F080031943916080F83D40002180F887
:1018F0003C1030BC08467047002804BF01207047E8
:1019000070B5044690F83D000D4628B9002084F8D3
:101910003C00204600F052F8022084F83D00206888
:10192000816821F0070121F480418160211D206838
:1019300000F01EF9206881688369026AD5F800C04A
:1019400023F00303AE694CEA010123F4407343EA38
:101950000623D5F808C0EE694CEA030323F0FC0324
:1019600023F47C43D5F80CC043EA06234CEA030376
:10197000D5F810C02E6A4FEA0C1C4CEA063C4CEA23
:101980000303D5F804C06D6922F0AA0242EA0512E9
:101990004CEA0202816020688361206802620120B3
:1019A00084F8460084F83E0084F83F0084F8420042
:1019B00084F8430084F83D00002070BD00B587B076
:1019C0000021009101910291039104910168A1F11C
:1019D0008040B0F580301CBF07B000BD0F480168E3
:1019E00041F001010160006800F0010005900C4821
:1019F000016841F0010101600068694600F00100E2
:101A000005904FF440700090022001900120049056
:101A10000448FEF7C1FC07B000BD00004438024096
:101A20003038024000000240FEE7000010B50022FE
:101A30001049114800F0F1FB002818BFFEF795FC93
:101A40000E490D4800F0EEFD002818BFFEF78DFC92
:101A50000B49094800F06FF9002818BFFEF785FC14
:101A6000054800F0FCFD002808BF10BDBDE810408F
:101A7000FEF77BBC1400002014020020F8000020B8
:101A8000D4000020FEE7FEE70148FEF79FBF0000FC
:101A90000007002070477047094910B50868002802
:101AA0001CBF401E086007D14FF47A7008604FF4E5
:101AB00000510448FEF76EFDBDE81040FEF77EBD04
:101AC000100000200008024030B593B000242248E6
:101AD00002940394049405940C940D940E940F9422
:101AE0001094016841F080510160006800F080505E
:101AF00011901A48016821F4404141F4004101600D
:101B00000068022500F4404011900120009000047C
:101B100001908001CDE9065019200890C02009905D
:101B200004200A900B906846FFF780FC08B172B65B
:101B3000FEE70F20CDE90C054FF48050CDE90E40B3
:101B400001210CA81094FFF77FFB002804BF13B0FD
:101B500030BD72B6FEE70000403802400070004021
:101B60000248016841F470010160704788ED00E0AF
:101B700070B40268DFF884C0214B224C224D6045CE
:101B800018BFB0F1804F04D098421CBFA042A842B9
:101B900004D14E6822F0700246EA0202604518BF86
:101BA000B0F1804F14D0984218BFA04210D0A84284
:101BB0001CBFA0F18043B3F5A03309D0A0F180434E
:101BC000B3F5A2331CBFA0F18043B3F5A43303D116
:101BD000CB6822F440721A434B6922F080021A4308
:101BE00002608A68C2620A688262604504BF09694D
:101BF00001630121416170BC704700000000014099
:101C00000004004000080040000C0040D0F8BC0276
:101C10000021017508467047D0F8BC22002A04BF95
:101C20000320704710B5D0F8C00251781378C2680D
:101C300018469047002010BD70B50446812100F081
:101C40000AFB0025258765870121204600F003FB5C
:101C5000A4F87851A4F87A51D4F8BC0248B1D4F869
:101C6000C00280688047D4F8BC0200F0CDFEC4F802
:101C7000BC52002070BD10B5D0F8BC42002C04BF8F
:101C8000032010BD2169012908D1D0F8C0022378B2
:101C90006178C2681846904700202061002010BD7E
:101CA0000A21018000487047C001002029210180DD
:101CB000004870473001002029210180004870470A
:101CC0005C01002029210180004870478801002024
:101CD0002DE9F0410446182000F098FE05004FF071
:101CE000000602BFC4F8BC620220BDE8F0810520F6
:101CF000C4F8BC526087A4F87A0102230322812130
:101D0000204600F0B5FB012727870223032239462E
:101D1000204600F0ADFBA4F878712E75D4F8C0020F
:101D20004068804702232A460121204600F0ACFB90
:101D30000020BDE8F08100290EBF0320C0F8C012CA
:101D40000020704710B51346D0F8BC22002A04BF0B
:101D5000032010BD90F89CC2BCF1030F0ED192F885
:101D600014C0BCF1000F1CBF012010BD4FF0010CCE
:101D700082F814C00A46812100F034FC002010BD16
:101D800038B50022D0F8BC3284461546ADF80020A4
:101D90001446002B04BF032038BD087810F0600003
:101DA00028D0202860D14878801E0A285CD2DFE83D
:101DB00000F012085B5B5B5B5B190E05887858606E
:101DC00056E00122191D604600F09EF850E0488858
:101DD000000A98604CE0012203F10801604600F01F
:101DE00093F845E001201861CA881946604600F062
:101DF00071F83DE04878062817D003DC58B1012877
:101E000036D031E00A282BD00B2804BF9CF89C0266
:101E1000032836D028E09CF89C02032824D1022213
:101E20006946604600F070F822E048882223B3EB50
:101E3000102F07D1CA886C2A88BF6C22DCF8C00238
:101E4000056808E02123B3EB102F04D1CA880E4D9A
:101E5000092A88BF09222946604600F055F807E0A4
:101E60009CF89C02032805D0604600F028F8032463
:101E7000204638BD012203F10C01604600F044F811
:101E8000F6E78878D860F3E7B401002010B5D0F801
:101E9000B822002A1CBF52689047002010BD13468C
:101EA00010B50A46002100F0EFFA002010BD1346DD
:101EB00010B50A46002100F095FB002010BD10B5BA
:101EC0000446802100F073FB2046BDE8104000214D
:101ED00000F06DBB10B50323C0F89432C0F8582150
:101EE0001346C0F85C210A46002100F0CDFA00201C
:101EF00010BD10B50521C0F8941200231A461946EA
:101F000000F0C2FA002010BD10B50223C0F89432D0
:101F100082611346C2610A46002100F063FB002083
:101F200010BD10B50421C0F8941200231A461946BA
:101F300000F058FB002010BD10B50A46024903A06E
:101F400000F02BF9004810BDE404002043757374C1
:101F50006F6D2048494420436F6E6669670000003A
:101F600012200880004870473400002010B50A464F
:101F7000024903A000F011F9004810BDE40400205C
:101F8000437573746F6D2048494420496E746572BF
:101F90006661636500000000042008800048704707
:101FA0003000002010B50A46024903A000F0F5F801
:101FB000004810BDE404002053544D6963726F65FE
:101FC0006C656374726F6E696373000010B50A46C6
:101FD000024903A000F0E1F8004810BDE40400202D
:101FE00053544D333220437573746F6D2048756DB3
:101FF000616E20696E746572666163650000000041
:102000002DE9F0031A2008801E480168001D0268AF
:10201000001D0068091831D0DFF86C800020082707
:10202000302508F102034FF00A0C37260446BCEBBA
:10203000117F8CBF05EB117906EB117903F8109035
:1020400003EB4009401C0901C0B289F80140B842C5
:10205000EDD3042308F112010020BCEB127F8CBFEA
:1020600005EB127706EB127701F8107001EB4007D1
:10207000401C1201C0B27C709842EED3BDE8F00360
:1020800001487047107AFF1F48000020F8B5044649
:102090000020ADF8000048880D46010A08296FD2DB
:1020A000DFE801F06E040B1D6E6E4D56D4F8B412CD
:1020B000207C0A686946904748E0207C0226002878
:1020C000D4F8B80205D0C16A684688470146467010
:1020D00048E0816A684688470146467042E0C0B2DF
:1020E00006284DD2DFE800F0030D13191F25D4F8A0
:1020F000B4024268002A43D0207C694690470146DA
:1021000030E0D4F8B4028268002AF5D138E0D4F87F
:10211000B402C268002AEFD132E0D4F8B4020269F6
:10212000002AE9D12CE0D4F8B4024269002AE3D1B4
:1021300026E0D4F8B4028269002ADDD120E0207CB8
:10214000F0B9D4F8B802416B68468847014609E007
:10215000207CA8B9D4F8B802016B684688470146CC
:1021600007204870EA88A2B1BDF8000040B1824261
:1021700088BF0246ADF800202046FFF7C5FEF8BD37
:102180008021204600F013FA0021204600F00FFACB
:10219000F8BD2046FFF7C5FEF8BD30B40025002885
:1021A00004BF30BC70474FF0000C047803463CB1CC
:1021B00013F8014F0CF1010C0CF0FF0C002CF7D1BF
:1021C000022303EB4C03138012784A556A1C032345
:1021D0008B540378AA1C002B12BF002330BC70471D
:1021E00010F801CB01F802C0521CD2B28B54521C21
:1021F00090F800C0D2B2BCF1000FF1D130BC7047F2
:1022000001004FF0000008BF7047012903D00229E8
:1022100004BF0120704703207047002804BF03203B
:1022200070470023C0F8B832C0F8C032C0F8CC32D2
:10223000002918BFC0F8B412012180F89C12027066
:1022400000F0B4B810B5D0F8C402FEF7E1FABDE86A
:102250001040FFF7D5BF10B5D0F8C402FEF7B2FAB0
:10226000BDE81040FFF7CCBF70B51346044621B15E
:1022700094F89C02032848D050E0D4F8941204F15A
:1022800014000025022939D1D0E9022191420DD252
:10229000A2EB0102826019462046FFF708FE0023E8
:1022A0001A461946204600F0EFF827E014D140689E
:1022B000884211D3D4F8981288420DD200221146D8
:1022C0002046FFF7F4FD00231A4619462046C4F8BD
:1022D000985200F0D9F811E094F89C02032806D136
:1022E000D4F8B802C16800291CBF20468847802165
:1022F000204600F05CF92046FFF7FBFD94F8A002B1
:10230000012808BF84F8A05208E0D4F8B802426956
:1023100022B120469047002818BF70BD002070BD34
:1023200010B59446044621B194F89C02032824D0A9
:102330002CE0D4F8941204F5AA70032926D1D0E930
:10234000023293420AD99A1A8260C068904298BFBA
:10235000024661462046FFF7A2FD17E094F89C0272
:10236000032806D1D4F8B802016900291CBF204611
:1023700088472046FFF7D5FD08E0D4F8B802826907
:1023800022B120469047002818BF10BD002010BD84
:102390000020704710B5012180F89C12D0F8B822B7
:1023A00012B1526801799047002010BD10B5017834
:1023B00041BB15490222C1F80404C0F8C4124FF011
:1023C000A0400860042048600020C1E90320C1E962
:1023D000062008624862C86208630846FEF7FAFDF4
:1023E000002818BFFDF7C1FF80210748FEF7A5F9B7
:1023F000402200210448FEF7A4F98022012102486E
:10240000FEF79FF9002010BD0007002011F0800F9B
:1024100001F07F01D0F8C402C1EBC10100EB8100E3
:1024200014BF90F83E0090F8FE01704710B5D0F848
:10243000B822002A04BF032010BD90F89C32032B61
:1024400003D1126A002A18BF9047002010BD10B5B2
:10245000D0F8B822002A04BF032010BD90F89C32A7
:10246000032B03D1526A002A18BF9047002010BDE9
:1024700010B59C461346D0F8C4026246FEF7F7F941
:10248000BDE81040FFF7BCBE10B5D0F8C402FEF79F
:102490001DFABDE81040FFF7B3BE70B50125044634
:1024A00080F89C520020C4F894026060C4F8A40232
:1024B000D4F8B802002804BF032070BDD4F8BC12C1
:1024C00000291CBF4268002A03D04FF000012046BB
:1024D00090470022402311462046FFF7C9FF4026BF
:1024E000A4F864513346002280212046C4F860617C
:1024F000FFF7BEFFA5840020266270BD90F89C12F5
:10250000042904BF90F89D1280F89C1200207047A7
:1025100010B5D0F8B812002904BF032010BD90F800
:102520009C22032A03D1C969002918BF88470020CB
:1025300010BD01740020704710B5D0F8C402FEF73A
:102540002EFEBDE81040FFF75BBE10B5044600F25A
:10255000AA2000F050F80120C4F89402B4F8B002A8
:10256000C4F8980294F8AA1211F01F000AD00128AA
:102570000FD0022814D02046BDE8104001F08001A1
:1025800000F015B804F2AA212046BDE8104000F082
:1025900069B804F2AA212046BDE8104000F008BA4C
:1025A00004F2AA212046BDE8104000F04BB910B556
:1025B000D0F8C402FEF7AFF9BDE81040FFF720BE27
:1025C00010B5D0F8C402FEF705FEBDE81040FFF7D5
:1025D00017BE90F89C1280F89D12042180F89C127E
:1025E0000020704710B5D0F8C402FEF7CDF9BDE861
:1025F0001040FFF705BE11F8012B027011F8012BF6
:1026000042700B784A7843EA0222428011F8023F76
:102610004A7843EA022282808B78C97843EA012112
:10262000C180704738B504460020ADF8000000298D
:1026300004BF032038BDC4F8B812C96A19B168468E
:102640008847C4F8CC02002038BD03460320D3F8E5
:10265000B822002A08BF7047126818461047FFF7D3
:10266000AFBF000070B50A78002512F0600209D0F3
:10267000202A18BF402A7DD1D0F8B822926890470E
:102680000546A2E04A780A2A74D2DFE802F0ABCB12
:1026900096C3960805968B28FFF7F8FC95E004464C
:1026A0008888002804BFC888002843D1488880282B
:1026B00040D200F07F0694F89C0203283AD084F8B8
:1026C0009E6231462046FFF737FF2046FFF729FC80
:1026D000002E0CBF0120022084F89C0275E0584EA9
:1026E0008978002504463170012908D980212046C7
:1026F000FFF75DFF00212046FFF759FF11E094F836
:102700009C0202280FD0032824D080212046FFF706
:102710004EFF00212046FFF74AFF31782046FFF7A1
:10272000B5FB032551E099B120466160FFF78DFFAD
:10273000050008D080212046FFF739FF0021204600
:10274000FFF735FF41E02046FFF7EBFB0320C3E72F
:10275000204664E0E9B160688842F9D0C1B2204601
:10276000FFF794FB317820466160FFF76EFF0500AC
:10277000EED000E021E080212046FFF718FF002185
:102780002046FFF714FF21792046FFF77FFB022048
:10279000A2E7022084F89C0220466160FFF776FBE6
:1027A00020463CE0C988012907D190F89C120129F4
:1027B00018BF02290BD003290FD004468021FFF750
:1027C000F6FE00212046FFF7F2FE284670BD0021EC
:1027D0008160012200F1080119E00122011DFFF7CB
:1027E00093FBF2E790F89C22012A19BF022A032AE0
:1027F000C9880229E1D14FF00101C160D0F8A412CB
:1028000000291CBF0321C160022200F10C01FFF767
:102810007BFBDAE749880129D7D1C0F8A412FFF77A
:1028200080FBD2E790F89C22012A1CBF022A032ACF
:10283000C3D14988012908BF0021C6D1EDE70000B6
:10284000F40000202DE9F0410D46044628780026CA
:10285000097910F060000BD0202818BF402851D112
:10286000D4F8B802294682682046904706469CE084
:10287000687800283FD0012824D0032842D194F85A
:102880009C02022802D003280CD086E0002918BF41
:10289000802937D02046FFF78AFE80212046FFF7A7
:1028A00086FE82E0688848B9002918BF802905D0D3
:1028B000E888002804BF2046FFF779FE2046FFF78E
:1028C00030FB72E094F89C02022802D0032805D065
:1028D00063E0002918BF8029DCD15EE06888002809
:1028E00063D111F07F0F1CBF2046FFF7ABFC2046E1
:1028F000FFF717FBB4E794F89C020027022802D0E8
:10290000032818D049E0002918BF802945D101F0DB
:102910007F0000EB800011F0800F04EB800014BFFB
:1029200000F1140100F5AA714FF0020220460F6079
:10293000FFF7EAFA39E001F00F0000EB800011F038
:10294000800F04EB80000AD0808C30B301F07F0050
:1029500000EB800004EB800000F114050AE0B0F801
:102960006401D0B101F07F0000EB800004EB800037
:1029700000F5AA75002918BF802907D02046FFF767
:1029800045FD00281CBF0120286000D12F600222D5
:1029900029462046FFF7B8FA07E080212046FFF7D6
:1029A00006FE00212046FFF702FE3046BDE8F0811A
:1029B00070B50446087800260D4610F060001CBF74
:1029C0002028402816D194F89C0201281CBF022818
:1029D00003280FD1287901280CD8D4F8B8028268CE
:1029E000204690470646E888304304BF2046FFF75C
:1029F00098FA07E080212046FFF7D9FD0021204604
:102A0000FFF7D5FD304670BD7047000000487047A5
:102A1000E406002010B40A784FF0010C02F00F0316
:102A20004C780CFA03F3D0F81CC8012C0BD04CEAFC
:102A30000343C0F81C3800EB4210D0F8002B12F40E
:102A4000004F20D02CE09BB24CEA0303C0F81C38A6
:102A500000EB4210D0F8003913F4004F20D1D0F829
:102A60000039B1F808C0C978CCF30A0C890443EAEC
:102A70000C0341EA8251194341F4004141F0805175
:102A8000C0F800190CE0D0F8002B0B89C978C3F30B
:102A90000A031A43044B43EA81411143C0F8001B67
:102AA00010BC00207047000000800010D0F8001912
:102AB0006FF30A01C0F80019D0F8041841F48071CE
:102AC000C0F804180020704770B40024059E03234A
:102AD000304ADDF80CC0099D0C99012E24D0C16844
:102AE00041F04001C1600021491C914210D80669A3
:102AF00016F0004FF8D00669002146F00106066185
:102B0000491C914204D8066916F0010FF8D12346FA
:102B1000816B002D0CBF41F4803121F48031816341
:102B2000BCF1010F32D129E0856B25F48035856336
:102B3000C56825F0400525F48405C560C56825F401
:102B40004015C560012903D1C16841F48011C160FD
:102B50000021491C9142E3D8056915F0004FF8D0D7
:102B60000569002145F001050561491C9142D7D84E
:102B7000056915F0010FF8D12346D1E7816841F0CE
:102B800006018160816841F02001816070BC1846B7
:102B900070470000400D030010B491F801C00A789E
:102BA000012300EB4212BCF1010F2FD0D2F800CB71
:102BB0001CF0004F0BD0D2F800CB4CF0006CC2F8E8
:102BC00000CBD2F800CB4CF0804CC2F800CBD0F850
:102BD0003CC80C7804F00F0403FA04F42CEA044C0B
:102BE000C0F83CC8D0F81CC8097801F00F0103FAFE
:102BF00001F12CEA0141C0F81C18D2F8000B1B4966
:102C00000840C2F8000B10BC00207047D2F800C981
:102C10001CF0004F0BD0D2F800C94CF0006CC2F889
:102C200000C9D2F800C94CF0804CC2F800C9D0F8F5
:102C30003CC80C7804F00F0403FA04F4A4B22CEAA4
:102C4000040CC0F83CC8D0F81CC8097801F00F018A
:102C500003FA01F189B22CEA0101C0F81C18D2F87C
:102C6000000903490840C2F80009CCE70078F3EFF7
:102C7000007833ECD0F8001E21F00301C0F8001EEC
:102C8000D0F8041821F00201C0F8041800207047A1
:102C9000D0F8001E21F00301C0F8001ED0F804187F
:102CA00041F00201C0F80418002070472DE9F00F30
:102CB0000025DDE90AC9DDF820800F9E2A462F464F
:102CC00000EB8204C4F80471521C0F2AF8D30246A8
:102CD00016B3926B22F400148463826B42F40024D6
:102CE00002468463C2F8007ED2F80048C2F8004869
:102CF000BCF1010F24D0D2F8003843F00303C2F82E
:102D000000384FF4846C0022C0F810C04F4B521CA6
:102D10009A421ED9012521E0D2F8042842F002048B
:102D2000C0F80448826B42F400148463826B22F47E
:102D300000248463826B22F4802402468463D1E7FA
:102D4000002BD2F8003818BF43F00103C2F8003856
:102D5000D7E7D0F810C01CF0200FD8D100221024E3
:102D60000461521C9A4201D9012504E0D0F810C038
:102D70001CF0100FF5D1C0F81078C0F81478C0F826
:102D80001C7800224FF0006A4FF0904B4FF67F3CCA
:102D9000002917D900EB4213D3F8004914F0004F73
:102DA00008BFC3F8007906D0002A06BF0446C0F861
:102DB00000A9C3F800B9C3F81079C3F808C9521CB8
:102DC0009142E7D80022002917D900EB4213D3F82B
:102DD000004B14F0004F08BFC3F8007B06D0002A58
:102DE00006BF0446C0F800ABC3F800BBC3F8107BB5
:102DF000C3F808CB521C9142E7D8D0F8101821F440
:102E00008072C0F8102887616FF080414161B8F18D
:102E1000000F03D1816941F01001816181690C4A81
:102E200011438161B9F1000F03D0816941F00801BC
:102E30008161012E05D1816941F0040141F0804199
:102E400081612846BDE8F00F70470000400D030087
:102E500000383C80816821F00101816000207047CA
:102E600030B491F800C04C780CF0FF0300EB431332
:102E7000012C23D0D3F8100B6FF31200C3F8100B02
:102E8000D3F8100B6FF3DC40C3F8100B486900282F
:102E90001CBF88684861D3F8100B40F40020C3F8C9
:102EA000100BD3F8100BD1F808C0CCF3120C40EA89
:102EB0000C00C3F8100B012A5ED158E04C69002CBD
:102EC000D3F8104934D06FF31204C3F81049D3F883
:102ED00010496FF3DC44C3F810494D698C68A54272
:102EE00088BF4C61D3F8104944F40024C3F810495A
:102EF000D3F810494D69C5F312052C43C3F81049A6
:102F0000012A24D000EB4C12D2F8003943F00443DC
:102F1000C2F800394A694AB3D0F834280978012345
:102F200001F00F0103FA01F11143C0F8341829E050
:102F30006FF3DC44C3F81049D3F8104944F400247B
:102F4000C3F81049D3F810496FF31204D6E70969A2
:102F500000291CBF00EB4C12C2F8141900EB4C10F6
:102F6000D0F8001941F00441C0F800190AE0C8681F
:102F7000002818BFC3F8140BD3F8000B40F004402E
:102F8000C3F8000B30BC002070470000036CDFF872
:102F900054C0634504D9D0F8003B13F0004F1ED154
:102FA0000023C0F8103BD0F8103B43F40023C0F8D6
:102FB000103BD0F8103B43F01803C0F8103BD0F89A
:102FC000103B43F0C043C0F8103B012907D1C0F8C3
:102FD000142BD0F8001B41F08021C0F8001B00200A
:102FE000704700000A30544F4A780B78012A00EBF2
:102FF00043100BD0D0F8002B22F40012C0F8002BA5
:10300000C978032918BF022912D017E0D0F8002987
:1030100022F40012C0F80029C978032918BF022938
:103020000CD1D0F8001941F08051C0F8001905E02A
:10303000D0F8001B41F08051C0F8001B4FF0000099
:1030400070470A784B78D1B200EB4110012B05D0C4
:10305000D0F8001B11F0004F13D019E0D0F8001980
:1030600011F0004F06D12AB1D0F8001921F08041AB
:10307000C0F80019D0F8001941F40011C0F8001987
:103080000CE02AB1D0F8001B21F08041C0F8001BF1
:10309000D0F8001B41F40011C0F8001B002070475D
:1030A00070B491F800C04D780CF0FF036FF06044ED
:1030B00000EB4313012D2BD0D3F810CB6FF3120C80
:1030C000C3F810CBD3F810CB6FF3DC4CC3F810CBA4
:1030D0004D69002D7ED0D1F808C065446D1EB5FB4A
:1030E000FCFCD3F8105B1FFA8CFC04EACC442C43A4
:1030F000C3F8104BD3F8104B8D6805FB0CFCCCF3D8
:10310000120C44EA0C0CC3F810CB012A76D1B9E0BA
:103110004D6925B3D3F810596FF31205C3F8105950
:10312000D3F810596FF3DC45C3F810594E698D6818
:103130002E44761EB6FBF5F504EAC544D3F81059C3
:103140002C43C3F81049D3F810494D69C5F3120553
:103150002C43C3F81049CC78012C11D01CE0D3F8D3
:1031600010496FF3DC44C3F81049D3F8104944F414
:103170000024C3F81049D3F810496FF3120409E092
:10318000D3F8104924F0C044C3F81049D3F81049CB
:1031900044F00054C3F81049012A1CD000EB4C1332
:1031A000D3F800C94CF0044CC3F800C991F803C02F
:1031B000BCF1010F33D04A69002A71D0D0F834280D
:1031C0000978012301F00F0103FA01F11143C0F85E
:1031D000341865E048E00A69002A1CBF00EB4C1374
:1031E000C3F81429C978012909D000EB4C10D0F894
:1031F000001941F00441C0F8001951E047E0D0F84F
:10320000081811F4807F00EB4C11D1F8002914BF8D
:1032100042F0805242F00052C1F80029E5E7D0F8B0
:1032200008C81CF4807FD3F800C914BF4CF0805C40
:103230004CF0005CC3F800C991F800C0CB68898AE3
:1032400089B282B9C91C8A084FF000011CBF00EB8B
:103250000C3000F5805023D053F804CBC0F800C0E8
:10326000491C8A42F8D81BE0D3F810CB8C68C4F311
:1032700012044CEA040CC3F810CBD3F810CB4CF476
:10328000002C40E7CA68002A18BFC3F8142BC9787D
:10329000012908D0D3F8000B40F00440C3F8000B1C
:1032A00070BC00207047D0F8080810F4807FD3F875
:1032B000000B14BF40F0805040F00050C3F8000BEA
:1032C000E8E7816841F0010181600020704700005B
:1032D0000022202343EA811101610649521C8A42DF
:1032E00001D903207047036913F0200FF6D10020A5
:1032F00070470000400D0300D0F8080810F00600E9
:1033000008BF7047022816BF062802200F2070470A
:10331000406900F001007047D0F81818D0F81C0878
:10332000084080B27047D0F81818D0F81C08084040
:10333000000C7047D0F81028D0F8343801F00F0C8A
:1033400000EB411023FA0CF303F00103D0F8080955
:1033500042EAC3121040704700EB4111D1F8081B3C
:10336000D0F81408084070474169806908407047E8
:1033700003460846D11C8A084FF0000114BF03F52C
:1033800080537047D3F800C0491C40F804CB8A42F0
:10339000F8D8704710B5C26822F0C042C260012957
:1033A00004BFC16841F0005106D0002907BFC168C1
:1033B00041F08041012010BDC1603220FCF7D8FFF0
:1033C000002010BDD0F8002822F4FE62C0F80028CA
:1033D000D0F800284FF4FE6303EA01111143C0F84E
:1033E0000018002070470000022A43D1284A294BC8
:1033F0000A449A4238BF0F213DD3274A274B0A443B
:103400009A4238BF0E2136D3A1F57402244BA2F59F
:1034100010529A4238BF0D212DD3A1F18372214B56
:10342000A2F5E7429A4238BF0C2124D31E4A1F4B13
:103430000A449A4238BF0B211DD31D4A1D4B0A4432
:103440009A4238BF0A2116D31B4A1C4B0A449A429F
:1034500010D3A1F1B7721A4BA2F558529A4238BF55
:10346000082108D3174A1144174A914234BF072153
:10347000062100E00921C26822F47052C260C268CD
:103480004FF4705303EA81211143C160002070475B
:10349000405327FF00350C00401E1BFF40420F0029
:1034A000804F120020D6130060B6E5FE60E31600E0
:1034B00000D3CEFE40771B00C05BB3FEC09121005D
:1034C00020753800E05459FEE09C4100DDF800C052
:1034D000BCF1000F10D1DB1C5FEA930C4FF000032E
:1034E0001CBF00EB023000F5805005D051F8042BD2
:1034F00002605B1C9C45F9D800207047FEE702E0A3
:1035000008C8121F08C1002AFAD17047704700206E
:1035100001E001C1121F002AFBD170478CB0FDF7FA
:1035200059F8FEF7D1FA00243C4800940194029423
:1035300003940494016841F004010160016801F002
:1035400004010591016841F080010160016801F00A
:1035500080010591016841F0010101600068304E71
:1035600000F00100059000224FF400513046FDF7B5
:1035700019F84FF4005100910125CDE90154694635
:1035800030460394FCF708FFFEF750FA26480194F2
:10359000039405940494079408940A9421490B9485
:1035A000C0E900144FF6FF71C0E9024180210461B7
:1035B000C0E905410095029569460695FEF79CF91C
:1035C00008B172B6FEE70A940AA917480B94FEF7F1
:1035D00051F908B172B6FEE7154E144F06F1040812
:1035E00006F1090538780028FCD13C70306800F2FB
:1035F0005740306000F0010088F801006420FCF7BB
:10360000B7FE6C7030682871010AE970000CA87070
:10361000052208490848FEF795FBE3E730380240E9
:103620000008024000000140CC01002062000020A0
:10363000000000200900002014020020000000000B
:103640000000000001020304060708096C360008A8
:1036500000000020CC010000940200085C37000844
:10366000CC0100203C1900000E35000841600B051C
:10367000536E645F060102040813611F1B0899045E
:103680001AA5041ACD041301201B0839081A6D0469
:10369000170403090412013202164083045057260E
:1036A0000201020301031E1A031206100BFF090197
:1036B000A10185010901152809250175089501B1A8
:1036C000820E9F91828502090214190E19149C031F
:1036D000090314190E19149C04090414190E191461
:1036E0001C050905104808048182850609060A237D
:1036F000C0681420F1021B08ED041AF504413210D1
:1037000019A7215324F41BD11CD419044B811D206B
:103710001A770C1A0D041A1904C11AB9101AAD043B
:103720001AC5041AA1041409022913010125C03283
:1037300009042A02F515092111011401226C16074A
:10374000058103022D0507050107291A09562C6971
:0C3750001A31130A0632022A40DC000085
:040000050800019559
:00000001FF
